{
  "contractName": "AssetBase",
  "abi": [
    {
      "constant": true,
      "inputs": [
        {
          "name": "",
          "type": "uint256"
        }
      ],
      "name": "tokenIndexToOwner",
      "outputs": [
        {
          "name": "",
          "type": "address"
        }
      ],
      "payable": false,
      "stateMutability": "view",
      "type": "function"
    },
    {
      "constant": true,
      "inputs": [
        {
          "name": "",
          "type": "uint256"
        }
      ],
      "name": "tokenIndexToApproved",
      "outputs": [
        {
          "name": "",
          "type": "address"
        }
      ],
      "payable": false,
      "stateMutability": "view",
      "type": "function"
    },
    {
      "constant": true,
      "inputs": [],
      "name": "nonce",
      "outputs": [
        {
          "name": "",
          "type": "uint256"
        }
      ],
      "payable": false,
      "stateMutability": "view",
      "type": "function"
    },
    {
      "constant": true,
      "inputs": [
        {
          "name": "",
          "type": "uint256"
        }
      ],
      "name": "assets",
      "outputs": [
        {
          "name": "assetHash",
          "type": "string"
        },
        {
          "name": "creationTime",
          "type": "uint64"
        },
        {
          "name": "assetType",
          "type": "uint256"
        },
        {
          "name": "assetStatus",
          "type": "uint256"
        },
        {
          "name": "personalisedMessage",
          "type": "string"
        }
      ],
      "payable": false,
      "stateMutability": "view",
      "type": "function"
    },
    {
      "anonymous": false,
      "inputs": [
        {
          "indexed": false,
          "name": "from",
          "type": "address"
        },
        {
          "indexed": false,
          "name": "to",
          "type": "address"
        },
        {
          "indexed": false,
          "name": "tokenId",
          "type": "uint256"
        }
      ],
      "name": "Transfer",
      "type": "event"
    },
    {
      "anonymous": false,
      "inputs": [
        {
          "indexed": false,
          "name": "",
          "type": "string"
        },
        {
          "indexed": false,
          "name": "",
          "type": "uint256"
        },
        {
          "indexed": false,
          "name": "",
          "type": "string"
        },
        {
          "indexed": false,
          "name": "",
          "type": "uint256"
        },
        {
          "indexed": false,
          "name": "",
          "type": "uint256"
        }
      ],
      "name": "AssetCreated",
      "type": "event"
    },
    {
      "constant": false,
      "inputs": [
        {
          "name": "personalMessage",
          "type": "string"
        },
        {
          "name": "hashprefix",
          "type": "string"
        },
        {
          "name": "_assetType",
          "type": "uint256"
        }
      ],
      "name": "_generateAssets",
      "outputs": [
        {
          "name": "",
          "type": "uint256"
        }
      ],
      "payable": false,
      "stateMutability": "nonpayable",
      "type": "function"
    }
  ],
  "bytecode": "0x6060604052341561000f57600080fd5b6109a08061001e6000396000f30060606040526004361061006d576000357c0100000000000000000000000000000000000000000000000000000000900463ffffffff1680631d36e06c14610072578063a8bd9c32146100d5578063affed0e014610138578063ce5b84ef14610161578063cf35bdd01461021e575b600080fd5b341561007d57600080fd5b6100936004808035906020019091905050610389565b604051808273ffffffffffffffffffffffffffffffffffffffff1673ffffffffffffffffffffffffffffffffffffffff16815260200191505060405180910390f35b34156100e057600080fd5b6100f660048080359060200190919050506103bc565b604051808273ffffffffffffffffffffffffffffffffffffffff1673ffffffffffffffffffffffffffffffffffffffff16815260200191505060405180910390f35b341561014357600080fd5b61014b6103ef565b6040518082815260200191505060405180910390f35b341561016c57600080fd5b610208600480803590602001908201803590602001908080601f0160208091040260200160405190810160405280939291908181526020018383808284378201915050505050509190803590602001908201803590602001908080601f016020809104026020016040519081016040528093929190818152602001838380828437820191505050505050919080359060200190919050506103f5565b6040518082815260200191505060405180910390f35b341561022957600080fd5b61023f6004808035906020019091905050610619565b60405180806020018667ffffffffffffffff1667ffffffffffffffff168152602001858152602001848152602001806020018381038352888181546001816001161561010002031660029004815260200191508054600181600116156101000203166002900480156102f25780601f106102c7576101008083540402835291602001916102f2565b820191906000526020600020905b8154815290600101906020018083116102d557829003601f168201915b50508381038252848181546001816001161561010002031660029004815260200191508054600181600116156101000203166002900480156103755780601f1061034a57610100808354040283529160200191610375565b820191906000526020600020905b81548152906001019060200180831161035857829003601f168201915b505097505050505050505060405180910390f35b60026020528060005260406000206000915054906101000a900473ffffffffffffffffffffffffffffffffffffffff1681565b60046020528060005260406000206000915054906101000a900473ffffffffffffffffffffffffffffffffffffffff1681565b60005481565b60006103ff610875565b60a0604051908101604052808581526020014267ffffffffffffffff1681526020018481526020016000815260200186815250905080600160008054815260200190815260200160002060008201518160000190805190602001906104659291906108bb565b5060208201518160010160006101000a81548167ffffffffffffffff021916908367ffffffffffffffff160217905550604082015181600201556060820151816003015560808201518160040190805190602001906104c59291906108bb565b509050506104d1610661565b6104e2600033600160005403610673565b7f2fbb45cdf431959b49d09945771589784c142df91e85099a483919de3d6e58358460016000540387866000604051808060200186815260200180602001858152602001848152602001838103835288818151815260200191508051906020019080838360005b83811015610564578082015181840152602081019050610549565b50505050905090810190601f1680156105915780820380516001836020036101000a031916815260200191505b50838103825286818151815260200191508051906020019080838360005b838110156105ca5780820151818401526020810190506105af565b50505050905090810190601f1680156105f75780820380516001836020036101000a031916815260200191505b5097505050505050505060405180910390a16001600054039150509392505050565b600160205280600052604060002060009150905080600001908060010160009054906101000a900467ffffffffffffffff169080600201549080600301549080600401905085565b60016000808282540192505081905550565b600360008373ffffffffffffffffffffffffffffffffffffffff1673ffffffffffffffffffffffffffffffffffffffff16815260200190815260200160002060008154809291906001019190505550816002600083815260200190815260200160002060006101000a81548173ffffffffffffffffffffffffffffffffffffffff021916908373ffffffffffffffffffffffffffffffffffffffff160217905550600073ffffffffffffffffffffffffffffffffffffffff168373ffffffffffffffffffffffffffffffffffffffff161415156107d157600360008473ffffffffffffffffffffffffffffffffffffffff1673ffffffffffffffffffffffffffffffffffffffff16815260200190815260200160002060008154809291906001900391905055506004600082815260200190815260200160002060006101000a81549073ffffffffffffffffffffffffffffffffffffffff02191690555b7fddf252ad1be2c89b69c2b068fc378daa952ba7f163c4a11628f55a4df523b3ef838383604051808473ffffffffffffffffffffffffffffffffffffffff1673ffffffffffffffffffffffffffffffffffffffff1681526020018373ffffffffffffffffffffffffffffffffffffffff1673ffffffffffffffffffffffffffffffffffffffff168152602001828152602001935050505060405180910390a1505050565b60a06040519081016040528061088961093b565b8152602001600067ffffffffffffffff16815260200160008152602001600081526020016108b561093b565b81525090565b828054600181600116156101000203166002900490600052602060002090601f016020900481019282601f106108fc57805160ff191683800117855561092a565b8280016001018555821561092a579182015b8281111561092957825182559160200191906001019061090e565b5b509050610937919061094f565b5090565b602060405190810160405280600081525090565b61097191905b8082111561096d576000816000905550600101610955565b5090565b905600a165627a7a723058205727126a71c38dc70b56864ab6b9380b74c53d8a453102a5bf89e607842ea5140029",
  "source": "pragma solidity ^0.4.11;\ncontract AssetBase {\n\n    event Transfer(address from,address to,uint256 tokenId);\n    event AssetCreated(string,uint256,string,uint256,uint256);\n    /*\n    event LockCreated(address, uint256,string);\n    event EventGenerationByForging(uint256[],address);\n    event LicenseGiven(uint256,uint256,uint64,string,string,address);\n    event LicenseRemoved(uint256,uint256);\n    event LimitPlanAdded (uint256,uint256);\n    event LimitPlanRemoved(uint256,uint256);\n    event LicenseRateTimeAdded(uint256 ,uint256);\n    event LicenseRateTimeRemoved(uint256,uint256);\n    event LockUpgraded (uint lockid, uint256 increaseByValue);\n    */\n    // struct of lock , all locks generated would be stored over here\n    struct Asset {\n        string assetHash;\n        uint64 creationTime;\n        // 1- pdf , 2- music,3-jpeg,4-png\n        uint256 assetType;\n        // status means onrent, for sale , locked , unlocked and more\n        // for now lets assume , 0 is the default , unlocked,unrented,notonsale\n        // 2 means on sale\n        // 1 means on chain\n        // TODO check if this is needed\n        uint256 assetStatus;\n        string personalisedMessage;\n    }\n\n    uint256 public nonce;\n\n    // this array will store all locks , we give id we get lock object , simple and sweet !\n    /* Asset[] public assets; */\n    mapping(uint => Asset) public assets;\n    // this array will contain all the locked locks\n    // this mapping will track address of owner with lockid which is basically the index of lock in the above array\n    mapping(uint256 => address) public tokenIndexToOwner;\n    // this mapping will give us no of locks owned by an address , we will increment this when tranfer of ownership happens\n    mapping(address => uint256) ownershipTokenCount;\n    // this mapping will track the owner ship approval , will be used for escrowing\n    mapping (uint256 => address) public tokenIndexToApproved;\n    function incrementNonce() internal {\n      nonce += 1;\n    }\n    function _transfer(address _from, address _to, uint256 _tokenId) internal {\n        ownershipTokenCount[_to]++;\n        // transfer ownership\n        tokenIndexToOwner[_tokenId] = _to;\n        // When creating new locks _from is 0x0, but we can't account that address.\n        if (_from != address(0)) {\n            ownershipTokenCount[_from]--;\n            // clear any previously approved ownership exchange\n            delete tokenIndexToApproved[_tokenId];\n        }\n        // Emit the transfer event.\n        Transfer(_from, _to, _tokenId);\n    }\n    function isOwnerOf(address _claimant, uint256 _tokenId) internal view returns (bool) {\n        return tokenIndexToOwner[_tokenId] == _claimant;\n    }\n    function _generateAssets (\n        string personalMessage,\n        string hashprefix,\n        uint256 _assetType\n    )  returns (uint256)\n    {\n        Asset memory _asset = Asset(\n        {\n        creationTime: uint64(now),\n        assetStatus: 0,\n        assetHash: hashprefix,\n        personalisedMessage: personalMessage,\n        assetType:_assetType\n        });\n\n        /* uint256 newAssetId = assets.push(_asset) - 1;\n        require(newAssetId == uint256(uint32(newAssetId))); */\n        assets[nonce] = _asset;\n        incrementNonce();\n\n        // transfers newly generated locks to ceoaddress\n        _transfer(0,msg.sender,nonce - 1);\n\n        // fire event\n        AssetCreated(hashprefix,nonce - 1,personalMessage,_assetType,0);\n\n        return nonce - 1;\n    }\n}\n",
  "sourcePath": "/Users/rikki/RikkiChains/KryptoMedia---Tokenizing-Digital-Media-Content/trufflehin/contracts/AssetBase.sol",
  "compiler": {
    "name": "solc",
    "version": "0.4.19+commit.c4cbbb05.Emscripten.clang"
  },
  "schemaVersion": "2.0.0",
  "updatedAt": "2018-03-18T05:29:17.854Z"
}