{
  "contractName": "CoreDeployer",
  "abi": [
    {
      "inputs": [],
      "payable": false,
      "stateMutability": "nonpayable",
      "type": "constructor"
    },
    {
      "constant": true,
      "inputs": [
        {
          "name": "keyvalue",
          "type": "string"
        }
      ],
      "name": "getAddressFromCores",
      "outputs": [
        {
          "name": "",
          "type": "address"
        }
      ],
      "payable": false,
      "stateMutability": "view",
      "type": "function"
    },
    {
      "constant": false,
      "inputs": [
        {
          "name": "name",
          "type": "string"
        },
        {
          "name": "symbol",
          "type": "string"
        }
      ],
      "name": "createCore",
      "outputs": [
        {
          "name": "",
          "type": "address"
        }
      ],
      "payable": false,
      "stateMutability": "nonpayable",
      "type": "function"
    },
    {
      "constant": false,
      "inputs": [],
      "name": "hi",
      "outputs": [
        {
          "name": "",
          "type": "bool"
        }
      ],
      "payable": false,
      "stateMutability": "nonpayable",
      "type": "function"
    }
  ],
  "bytecode": "0x6060604052341561000f57600080fd5b336000806101000a81548173ffffffffffffffffffffffffffffffffffffffff021916908373ffffffffffffffffffffffffffffffffffffffff1602179055506105108061005e6000396000f300606060405260043610610057576000357c0100000000000000000000000000000000000000000000000000000000900463ffffffff1680632b171eb01461005c578063a99dca3f146100f9578063b3283f2f14610126575b600080fd5b341561006757600080fd5b6100b7600480803590602001908201803590602001908080601f01602080910402602001604051908101604052809392919081815260200183838082843782019150505050505091905050610206565b604051808273ffffffffffffffffffffffffffffffffffffffff1673ffffffffffffffffffffffffffffffffffffffff16815260200191505060405180910390f35b341561010457600080fd5b61010c61029b565b604051808215151515815260200191505060405180910390f35b341561013157600080fd5b6101c4600480803590602001908201803590602001908080601f0160208091040260200160405190810160405280939291908181526020018383808284378201915050505050509190803590602001908201803590602001908080601f016020809104026020016040519081016040528093929190818152602001838380828437820191505050505050919050506102a4565b604051808273ffffffffffffffffffffffffffffffffffffffff1673ffffffffffffffffffffffffffffffffffffffff16815260200191505060405180910390f35b60006001826040518082805190602001908083835b602083101515610240578051825260208201915060208101905060208303925061021b565b6001836020036101000a038019825116818451168082178552505050505050905001915050908152602001604051809103902060009054906101000a900473ffffffffffffffffffffffffffffffffffffffff169050919050565b60006001905090565b60008083836102b1610458565b808060200180602001838103835285818151815260200191508051906020019080838360005b838110156102f25780820151818401526020810190506102d7565b50505050905090810190601f16801561031f5780820380516001836020036101000a031916815260200191505b50838103825284818151815260200191508051906020019080838360005b8381101561035857808201518184015260208101905061033d565b50505050905090810190601f1680156103855780820380516001836020036101000a031916815260200191505b50945050505050604051809103906000f08015156103a257600080fd5b9050806001846040518082805190602001908083835b6020831015156103dd57805182526020820191506020810190506020830392506103b8565b6001836020036101000a038019825116818451168082178552505050505050905001915050908152602001604051809103902060006101000a81548173ffffffffffffffffffffffffffffffffffffffff021916908373ffffffffffffffffffffffffffffffffffffffff1602179055508091505092915050565b604051607d8061046883390190560060606040523415600e57600080fd5b604051607d380380607d833981016040528080518201919060200180518201919050506001600081905550505060358060486000396000f3006060604052600080fd00a165627a7a723058200f2bac975c915c59c1982c956d15646cc9ecbd9012880417b1cdcdaff54231230029a165627a7a72305820f8419fdabed3f1e85be8bbb8328761b1e0c021129b2a4c5940c4e826901de8280029",
  "source": "pragma solidity ^0.4.18;\n\nimport \"./Core.sol\";\ncontract CoreDeployer {\n\n    address owner;\n    mapping(string=>address)  cores;\n    function getAddressFromCores(string keyvalue) constant returns (address){\n        return cores[keyvalue];\n    }\n    function CoreDeployer() public{\n        owner = msg.sender;\n    }\n\n    function createCore(string name,string symbol) public returns(Core){\n        Core core = new Core(name,symbol);\n        cores[symbol]=core;\n        return core;\n    }\n    function hi() public returns(bool) {\n      return true;\n    }\n}\n",
  "sourcePath": "/Users/shokishoki/development/consensys/hin/trufflehin/contracts/CoreDeployer.sol",
  "compiler": {
    "name": "solc",
    "version": "0.4.19+commit.c4cbbb05.Emscripten.clang"
  },
  "schemaVersion": "2.0.0",
  "updatedAt": "2018-03-17T17:48:26.430Z"
}