{
  "contractName": "Core",
  "abi": [
    {
      "constant": true,
      "inputs": [
        {
          "name": "_interfaceID",
          "type": "bytes4"
        }
      ],
      "name": "supportsInterface",
      "outputs": [
        {
          "name": "",
          "type": "bool"
        }
      ],
      "payable": false,
      "stateMutability": "view",
      "type": "function"
    },
    {
      "constant": true,
      "inputs": [],
      "name": "name",
      "outputs": [
        {
          "name": "",
          "type": "string"
        }
      ],
      "payable": false,
      "stateMutability": "view",
      "type": "function"
    },
    {
      "constant": false,
      "inputs": [
        {
          "name": "_to",
          "type": "address"
        },
        {
          "name": "_tokenId",
          "type": "uint256"
        }
      ],
      "name": "approve",
      "outputs": [],
      "payable": false,
      "stateMutability": "nonpayable",
      "type": "function"
    },
    {
      "constant": true,
      "inputs": [],
      "name": "totalSupply",
      "outputs": [
        {
          "name": "",
          "type": "uint256"
        }
      ],
      "payable": false,
      "stateMutability": "view",
      "type": "function"
    },
    {
      "constant": true,
      "inputs": [
        {
          "name": "",
          "type": "uint256"
        }
      ],
      "name": "tokenIndexToOwner",
      "outputs": [
        {
          "name": "",
          "type": "address"
        }
      ],
      "payable": false,
      "stateMutability": "view",
      "type": "function"
    },
    {
      "constant": false,
      "inputs": [
        {
          "name": "_from",
          "type": "address"
        },
        {
          "name": "_to",
          "type": "address"
        },
        {
          "name": "_tokenId",
          "type": "uint256"
        }
      ],
      "name": "transferFrom",
      "outputs": [],
      "payable": false,
      "stateMutability": "nonpayable",
      "type": "function"
    },
    {
      "constant": true,
      "inputs": [
        {
          "name": "_tokenId",
          "type": "uint256"
        }
      ],
      "name": "ownerOf",
      "outputs": [
        {
          "name": "owner",
          "type": "address"
        }
      ],
      "payable": false,
      "stateMutability": "view",
      "type": "function"
    },
    {
      "constant": true,
      "inputs": [
        {
          "name": "_owner",
          "type": "address"
        }
      ],
      "name": "balanceOf",
      "outputs": [
        {
          "name": "count",
          "type": "uint256"
        }
      ],
      "payable": false,
      "stateMutability": "view",
      "type": "function"
    },
    {
      "constant": true,
      "inputs": [
        {
          "name": "_owner",
          "type": "address"
        }
      ],
      "name": "tokensOfOwner",
      "outputs": [
        {
          "name": "ownerTokens",
          "type": "uint256[]"
        }
      ],
      "payable": false,
      "stateMutability": "view",
      "type": "function"
    },
    {
      "constant": true,
      "inputs": [],
      "name": "symbol",
      "outputs": [
        {
          "name": "",
          "type": "string"
        }
      ],
      "payable": false,
      "stateMutability": "view",
      "type": "function"
    },
    {
      "constant": true,
      "inputs": [
        {
          "name": "",
          "type": "uint256"
        }
      ],
      "name": "tokenIndexToApproved",
      "outputs": [
        {
          "name": "",
          "type": "address"
        }
      ],
      "payable": false,
      "stateMutability": "view",
      "type": "function"
    },
    {
      "constant": false,
      "inputs": [
        {
          "name": "_to",
          "type": "address"
        },
        {
          "name": "_tokenId",
          "type": "uint256"
        }
      ],
      "name": "transfer",
      "outputs": [],
      "payable": false,
      "stateMutability": "nonpayable",
      "type": "function"
    },
    {
      "constant": false,
      "inputs": [
        {
          "name": "personalMessage",
          "type": "string"
        },
        {
          "name": "hashprefix",
          "type": "string"
        },
        {
          "name": "_assetType",
          "type": "uint256"
        }
      ],
      "name": "_generateAssets",
      "outputs": [
        {
          "name": "",
          "type": "uint256"
        }
      ],
      "payable": false,
      "stateMutability": "nonpayable",
      "type": "function"
    },
    {
      "constant": true,
      "inputs": [
        {
          "name": "",
          "type": "uint256"
        }
      ],
      "name": "assets",
      "outputs": [
        {
          "name": "assetHash",
          "type": "string"
        },
        {
          "name": "creationTime",
          "type": "uint64"
        },
        {
          "name": "assetType",
          "type": "uint256"
        },
        {
          "name": "assetStatus",
          "type": "uint256"
        },
        {
          "name": "personalisedMessage",
          "type": "string"
        }
      ],
      "payable": false,
      "stateMutability": "view",
      "type": "function"
    },
    {
      "inputs": [
        {
          "name": "name",
          "type": "string"
        },
        {
          "name": "symbol",
          "type": "string"
        }
      ],
      "payable": false,
      "stateMutability": "nonpayable",
      "type": "constructor"
    },
    {
      "anonymous": false,
      "inputs": [
        {
          "indexed": false,
          "name": "from",
          "type": "address"
        },
        {
          "indexed": false,
          "name": "to",
          "type": "address"
        },
        {
          "indexed": false,
          "name": "_tokenId",
          "type": "uint256"
        }
      ],
      "name": "Approval",
      "type": "event"
    },
    {
      "anonymous": false,
      "inputs": [
        {
          "indexed": false,
          "name": "from",
          "type": "address"
        },
        {
          "indexed": false,
          "name": "to",
          "type": "address"
        },
        {
          "indexed": false,
          "name": "tokenId",
          "type": "uint256"
        }
      ],
      "name": "Transfer",
      "type": "event"
    },
    {
      "anonymous": false,
      "inputs": [
        {
          "indexed": false,
          "name": "",
          "type": "string"
        },
        {
          "indexed": false,
          "name": "",
          "type": "uint256"
        },
        {
          "indexed": false,
          "name": "",
          "type": "string"
        },
        {
          "indexed": false,
          "name": "",
          "type": "uint256"
        },
        {
          "indexed": false,
          "name": "",
          "type": "uint256"
        }
      ],
      "name": "AssetCreated",
      "type": "event"
    }
  ],
  "bytecode": "0x606060405234156200001057600080fd5b60405162001f7738038062001f7783398101604052808051820191906020018051820191905050818162000043620004e2565b600083600490805190602001906200005d9291906200052c565b508260059080519060200190620000769291906200052c565b5060a060405190810160405280602060405190810160405280600081525081526020014267ffffffffffffffff168152602001600081526020016000815260200160206040519081016040528060008152508152509150600160008054806001018281620000e59190620005b3565b91600052602060002090600502016000859091909150600082015181600001908051906020019062000119929190620005e8565b5060208201518160010160006101000a81548167ffffffffffffffff021916908367ffffffffffffffff160217905550604082015181600201556060820151816003015560808201518160040190805190602001906200017b929190620005e8565b505050039050620001a360003383620002df64010000000002620013da176401000000009004565b7f2fbb45cdf431959b49d09945771589784c142df91e85099a483919de3d6e58358260000151828460800151600080604051808060200186815260200180602001858152602001848152602001838103835288818151815260200191508051906020019080838360005b838110156200022a5780820151818401526020810190506200020d565b50505050905090810190601f168015620002585780820380516001836020036101000a031916815260200191505b50838103825286818151815260200191508051906020019080838360005b838110156200029357808201518184015260208101905062000276565b50505050905090810190601f168015620002c15780820380516001836020036101000a031916815260200191505b5097505050505050505060405180910390a150505050505062000768565b600260008373ffffffffffffffffffffffffffffffffffffffff1673ffffffffffffffffffffffffffffffffffffffff16815260200190815260200160002060008154809291906001019190505550816001600083815260200190815260200160002060006101000a81548173ffffffffffffffffffffffffffffffffffffffff021916908373ffffffffffffffffffffffffffffffffffffffff160217905550600073ffffffffffffffffffffffffffffffffffffffff168373ffffffffffffffffffffffffffffffffffffffff161415156200043e57600260008473ffffffffffffffffffffffffffffffffffffffff1673ffffffffffffffffffffffffffffffffffffffff16815260200190815260200160002060008154809291906001900391905055506003600082815260200190815260200160002060006101000a81549073ffffffffffffffffffffffffffffffffffffffff02191690555b7fddf252ad1be2c89b69c2b068fc378daa952ba7f163c4a11628f55a4df523b3ef838383604051808473ffffffffffffffffffffffffffffffffffffffff1673ffffffffffffffffffffffffffffffffffffffff1681526020018373ffffffffffffffffffffffffffffffffffffffff1673ffffffffffffffffffffffffffffffffffffffff168152602001828152602001935050505060405180910390a1505050565b60a060405190810160405280620004f86200066f565b8152602001600067ffffffffffffffff1681526020016000815260200160008152602001620005266200066f565b81525090565b828054600181600116156101000203166002900490600052602060002090601f016020900481019282601f106200056f57805160ff1916838001178555620005a0565b82800160010185558215620005a0579182015b828111156200059f57825182559160200191906001019062000582565b5b509050620005af919062000683565b5090565b815481835581811511620005e357600502816005028360005260206000209182019101620005e29190620006ab565b5b505050565b828054600181600116156101000203166002900490600052602060002090601f016020900481019282601f106200062b57805160ff19168380011785556200065c565b828001600101855582156200065c579182015b828111156200065b5782518255916020019190600101906200063e565b5b5090506200066b919062000683565b5090565b602060405190810160405280600081525090565b620006a891905b80821115620006a45760008160009055506001016200068a565b5090565b90565b6200071991905b80821115620007155760008082016000620006ce91906200071c565b6001820160006101000a81549067ffffffffffffffff0219169055600282016000905560038201600090556004820160006200070b91906200071c565b50600501620006b2565b5090565b90565b50805460018160011615610100020316600290046000825580601f1062000744575062000765565b601f01602090049060005260206000209081019062000764919062000683565b5b50565b6117ff80620007786000396000f3006060604052600436106100d0576000357c0100000000000000000000000000000000000000000000000000000000900463ffffffff16806301ffc9a7146100d557806306fdde031461012f578063095ea7b3146101bd57806318160ddd146101ff5780631d36e06c1461022857806323b872dd1461028b5780636352211e146102ec57806370a082311461034f5780638462151c1461039c57806395d89b411461042a578063a8bd9c32146104b8578063a9059cbb1461051b578063ce5b84ef1461055d578063cf35bdd01461061a575b600080fd5b34156100e057600080fd5b61011560048080357bffffffffffffffffffffffffffffffffffffffffffffffffffffffff1916906020019091905050610785565b604051808215151515815260200191505060405180910390f35b341561013a57600080fd5b610142610a5f565b6040518080602001828103825283818151815260200191508051906020019080838360005b83811015610182578082015181840152602081019050610167565b50505050905090810190601f1680156101af5780820380516001836020036101000a031916815260200191505b509250505060405180910390f35b34156101c857600080fd5b6101fd600480803573ffffffffffffffffffffffffffffffffffffffff16906020019091908035906020019091905050610afd565b005b341561020a57600080fd5b610212610bbf565b6040518082815260200191505060405180910390f35b341561023357600080fd5b6102496004808035906020019091905050610bcf565b604051808273ffffffffffffffffffffffffffffffffffffffff1673ffffffffffffffffffffffffffffffffffffffff16815260200191505060405180910390f35b341561029657600080fd5b6102ea600480803573ffffffffffffffffffffffffffffffffffffffff1690602001909190803573ffffffffffffffffffffffffffffffffffffffff16906020019091908035906020019091905050610c02565b005b34156102f757600080fd5b61030d6004808035906020019091905050610cb3565b604051808273ffffffffffffffffffffffffffffffffffffffff1673ffffffffffffffffffffffffffffffffffffffff16815260200191505060405180910390f35b341561035a57600080fd5b610386600480803573ffffffffffffffffffffffffffffffffffffffff16906020019091905050610d2c565b6040518082815260200191505060405180910390f35b34156103a757600080fd5b6103d3600480803573ffffffffffffffffffffffffffffffffffffffff16906020019091905050610d75565b6040518080602001828103825283818151815260200191508051906020019060200280838360005b838110156104165780820151818401526020810190506103fb565b505050509050019250505060405180910390f35b341561043557600080fd5b61043d610eac565b6040518080602001828103825283818151815260200191508051906020019080838360005b8381101561047d578082015181840152602081019050610462565b50505050905090810190601f1680156104aa5780820380516001836020036101000a031916815260200191505b509250505060405180910390f35b34156104c357600080fd5b6104d96004808035906020019091905050610f4a565b604051808273ffffffffffffffffffffffffffffffffffffffff1673ffffffffffffffffffffffffffffffffffffffff16815260200191505060405180910390f35b341561052657600080fd5b61055b600480803573ffffffffffffffffffffffffffffffffffffffff16906020019091908035906020019091905050610f7d565b005b341561056857600080fd5b610604600480803590602001908201803590602001908080601f0160208091040260200160405190810160405280939291908181526020018383808284378201915050505050509190803590602001908201803590602001908080601f01602080910402602001604051908101604052809392919081815260200183838082843782019150505050505091908035906020019091905050611018565b6040518082815260200191505060405180910390f35b341561062557600080fd5b61063b6004808035906020019091905050611255565b60405180806020018667ffffffffffffffff1667ffffffffffffffff168152602001858152602001848152602001806020018381038352888181546001816001161561010002031660029004815260200191508054600181600116156101000203166002900480156106ee5780601f106106c3576101008083540402835291602001916106ee565b820191906000526020600020905b8154815290600101906020018083116106d157829003601f168201915b50508381038252848181546001816001161561010002031660029004815260200191508054600181600116156101000203166002900480156107715780601f1061074657610100808354040283529160200191610771565b820191906000526020600020905b81548152906001019060200180831161075457829003601f168201915b505097505050505050505060405180910390f35b600060405180807f737570706f727473496e74657266616365286279746573342900000000000000815250601901905060405180910390207bffffffffffffffffffffffffffffffffffffffffffffffffffffffff1916827bffffffffffffffffffffffffffffffffffffffffffffffffffffffff19161480610a58575060405180807f746f6b656e734f664f776e6572286164647265737329000000000000000000008152506016019050604051809103902060405180807f7472616e7366657246726f6d28616464726573732c616464726573732c75696e81526020017f74323536290000000000000000000000000000000000000000000000000000008152506025019050604051809103902060405180807f7472616e7366657228616464726573732c75696e7432353629000000000000008152506019019050604051809103902060405180807f617070726f766528616464726573732c75696e743235362900000000000000008152506018019050604051809103902060405180807f6f776e65724f662875696e7432353629000000000000000000000000000000008152506010019050604051809103902060405180807f62616c616e63654f6628616464726573732900000000000000000000000000008152506012019050604051809103902060405180807f746f74616c537570706c79282900000000000000000000000000000000000000815250600d019050604051809103902060405180807f73796d626f6c28290000000000000000000000000000000000000000000000008152506008019050604051809103902060405180807f6e616d65282900000000000000000000000000000000000000000000000000008152506006019050604051809103902018181818181818187bffffffffffffffffffffffffffffffffffffffffffffffffffffffff1916827bffffffffffffffffffffffffffffffffffffffffffffffffffffffff1916145b9050919050565b60048054600181600116156101000203166002900480601f016020809104026020016040519081016040528092919081815260200182805460018160011615610100020316600290048015610af55780601f10610aca57610100808354040283529160200191610af5565b820191906000526020600020905b815481529060010190602001808311610ad857829003601f168201915b505050505081565b610b0733826112ac565b1515610b1257600080fd5b610b1c8183611318565b7f8c5be1e5ebec7d5bd14f71427d1e84f3dd0314c0f7b2291e5b200ac8c7c3b925338383604051808473ffffffffffffffffffffffffffffffffffffffff1673ffffffffffffffffffffffffffffffffffffffff1681526020018373ffffffffffffffffffffffffffffffffffffffff1673ffffffffffffffffffffffffffffffffffffffff168152602001828152602001935050505060405180910390a15050565b6000600160008054905003905090565b60016020528060005260406000206000915054906101000a900473ffffffffffffffffffffffffffffffffffffffff1681565b600073ffffffffffffffffffffffffffffffffffffffff168273ffffffffffffffffffffffffffffffffffffffff1614151515610c3e57600080fd5b3073ffffffffffffffffffffffffffffffffffffffff168273ffffffffffffffffffffffffffffffffffffffff1614151515610c7957600080fd5b610c83338261136e565b1515610c8e57600080fd5b610c9883826112ac565b1515610ca357600080fd5b610cae8383836113da565b505050565b60006001600083815260200190815260200160002060009054906101000a900473ffffffffffffffffffffffffffffffffffffffff169050600073ffffffffffffffffffffffffffffffffffffffff168173ffffffffffffffffffffffffffffffffffffffff1614151515610d2757600080fd5b919050565b6000600260008373ffffffffffffffffffffffffffffffffffffffff1673ffffffffffffffffffffffffffffffffffffffff168152602001908152602001600020549050919050565b610d7d6115dc565b6000610d876115dc565b6000806000610d9587610d2c565b94506000851415610dc7576000604051805910610daf5750595b90808252806020026020018201604052509550610ea2565b84604051805910610dd55750595b90808252806020026020018201604052509350610df0610bbf565b925060009150600190505b8281111515610e9e578673ffffffffffffffffffffffffffffffffffffffff166001600083815260200190815260200160002060009054906101000a900473ffffffffffffffffffffffffffffffffffffffff1673ffffffffffffffffffffffffffffffffffffffff161415610e9157808483815181101515610e7a57fe5b906020019060200201818152505081806001019250505b8080600101915050610dfb565b8395505b5050505050919050565b60058054600181600116156101000203166002900480601f016020809104026020016040519081016040528092919081815260200182805460018160011615610100020316600290048015610f425780601f10610f1757610100808354040283529160200191610f42565b820191906000526020600020905b815481529060010190602001808311610f2557829003601f168201915b505050505081565b60036020528060005260406000206000915054906101000a900473ffffffffffffffffffffffffffffffffffffffff1681565b600073ffffffffffffffffffffffffffffffffffffffff168273ffffffffffffffffffffffffffffffffffffffff1614151515610fb957600080fd5b3073ffffffffffffffffffffffffffffffffffffffff168273ffffffffffffffffffffffffffffffffffffffff1614151515610ff457600080fd5b610ffe33826112ac565b151561100957600080fd5b6110143383836113da565b5050565b60006110226115f0565b600060a0604051908101604052808681526020014267ffffffffffffffff1681526020018581526020016000815260200187815250915060016000805480600101828161106f9190611636565b9160005260206000209060050201600085909190915060008201518160000190805190602001906110a1929190611668565b5060208201518160010160006101000a81548167ffffffffffffffff021916908367ffffffffffffffff16021790555060408201518160020155606082015181600301556080820151816004019080519060200190611101929190611668565b5050500390508063ffffffff168114151561111b57600080fd5b611127600033836113da565b7f2fbb45cdf431959b49d09945771589784c142df91e85099a483919de3d6e5835858288876000604051808060200186815260200180602001858152602001848152602001838103835288818151815260200191508051906020019080838360005b838110156111a4578082015181840152602081019050611189565b50505050905090810190601f1680156111d15780820380516001836020036101000a031916815260200191505b50838103825286818151815260200191508051906020019080838360005b8381101561120a5780820151818401526020810190506111ef565b50505050905090810190601f1680156112375780820380516001836020036101000a031916815260200191505b5097505050505050505060405180910390a180925050509392505050565b60008181548110151561126457fe5b906000526020600020906005020160009150905080600001908060010160009054906101000a900467ffffffffffffffff169080600201549080600301549080600401905085565b60008273ffffffffffffffffffffffffffffffffffffffff166001600084815260200190815260200160002060009054906101000a900473ffffffffffffffffffffffffffffffffffffffff1673ffffffffffffffffffffffffffffffffffffffff1614905092915050565b806003600084815260200190815260200160002060006101000a81548173ffffffffffffffffffffffffffffffffffffffff021916908373ffffffffffffffffffffffffffffffffffffffff1602179055505050565b60008273ffffffffffffffffffffffffffffffffffffffff166003600084815260200190815260200160002060009054906101000a900473ffffffffffffffffffffffffffffffffffffffff1673ffffffffffffffffffffffffffffffffffffffff1614905092915050565b600260008373ffffffffffffffffffffffffffffffffffffffff1673ffffffffffffffffffffffffffffffffffffffff16815260200190815260200160002060008154809291906001019190505550816001600083815260200190815260200160002060006101000a81548173ffffffffffffffffffffffffffffffffffffffff021916908373ffffffffffffffffffffffffffffffffffffffff160217905550600073ffffffffffffffffffffffffffffffffffffffff168373ffffffffffffffffffffffffffffffffffffffff1614151561153857600260008473ffffffffffffffffffffffffffffffffffffffff1673ffffffffffffffffffffffffffffffffffffffff16815260200190815260200160002060008154809291906001900391905055506003600082815260200190815260200160002060006101000a81549073ffffffffffffffffffffffffffffffffffffffff02191690555b7fddf252ad1be2c89b69c2b068fc378daa952ba7f163c4a11628f55a4df523b3ef838383604051808473ffffffffffffffffffffffffffffffffffffffff1673ffffffffffffffffffffffffffffffffffffffff1681526020018373ffffffffffffffffffffffffffffffffffffffff1673ffffffffffffffffffffffffffffffffffffffff168152602001828152602001935050505060405180910390a1505050565b602060405190810160405280600081525090565b60a0604051908101604052806116046116e8565b8152602001600067ffffffffffffffff16815260200160008152602001600081526020016116306116e8565b81525090565b8154818355818115116116635760050281600502836000526020600020918201910161166291906116fc565b5b505050565b828054600181600116156101000203166002900490600052602060002090601f016020900481019282601f106116a957805160ff19168380011785556116d7565b828001600101855582156116d7579182015b828111156116d65782518255916020019190600101906116bb565b5b5090506116e49190611766565b5090565b602060405190810160405280600081525090565b61176391905b8082111561175f576000808201600061171b919061178b565b6001820160006101000a81549067ffffffffffffffff021916905560028201600090556003820160009055600482016000611756919061178b565b50600501611702565b5090565b90565b61178891905b8082111561178457600081600090555060010161176c565b5090565b90565b50805460018160011615610100020316600290046000825580601f106117b157506117d0565b601f0160209004906000526020600020908101906117cf9190611766565b5b505600a165627a7a72305820f48d2b4a023d4c9e136a042d5d33e29fbd3462be601b54f11bed938882394fed0029",
  "source": "pragma solidity ^0.4.18;\n\nimport \"./Ownership.sol\";\n\ncontract Core is Ownership {\n    function Core(string name,string symbol) Ownership(name,symbol) public {\n        // Starts paused\n    }\n}\n",
  "sourcePath": "/Users/shokishoki/development/consensys/hin/trufflehin/contracts/Core.sol",
  "compiler": {
    "name": "solc",
    "version": "0.4.19+commit.c4cbbb05.Emscripten.clang"
  },
  "schemaVersion": "2.0.0",
  "updatedAt": "2018-03-17T17:48:26.141Z"
}