{
  "contractName": "Ownership",
  "abi": [
    {
      "constant": true,
      "inputs": [],
      "name": "name",
      "outputs": [
        {
          "name": "",
          "type": "string"
        }
      ],
      "payable": false,
      "stateMutability": "view",
      "type": "function"
    },
    {
      "constant": true,
      "inputs": [
        {
          "name": "",
          "type": "uint256"
        }
      ],
      "name": "tokenIndexToOwner",
      "outputs": [
        {
          "name": "",
          "type": "address"
        }
      ],
      "payable": false,
      "stateMutability": "view",
      "type": "function"
    },
    {
      "constant": true,
      "inputs": [],
      "name": "symbol",
      "outputs": [
        {
          "name": "",
          "type": "string"
        }
      ],
      "payable": false,
      "stateMutability": "view",
      "type": "function"
    },
    {
      "constant": true,
      "inputs": [
        {
          "name": "",
          "type": "uint256"
        }
      ],
      "name": "tokenIndexToApproved",
      "outputs": [
        {
          "name": "",
          "type": "address"
        }
      ],
      "payable": false,
      "stateMutability": "view",
      "type": "function"
    },
    {
      "constant": true,
      "inputs": [],
      "name": "nonce",
      "outputs": [
        {
          "name": "",
          "type": "uint256"
        }
      ],
      "payable": false,
      "stateMutability": "view",
      "type": "function"
    },
    {
      "constant": false,
      "inputs": [
        {
          "name": "personalMessage",
          "type": "string"
        },
        {
          "name": "hashprefix",
          "type": "string"
        },
        {
          "name": "_assetType",
          "type": "uint256"
        }
      ],
      "name": "_generateAssets",
      "outputs": [
        {
          "name": "",
          "type": "uint256"
        }
      ],
      "payable": false,
      "stateMutability": "nonpayable",
      "type": "function"
    },
    {
      "constant": true,
      "inputs": [
        {
          "name": "",
          "type": "uint256"
        }
      ],
      "name": "assets",
      "outputs": [
        {
          "name": "assetHash",
          "type": "string"
        },
        {
          "name": "creationTime",
          "type": "uint64"
        },
        {
          "name": "assetType",
          "type": "uint256"
        },
        {
          "name": "assetStatus",
          "type": "uint256"
        },
        {
          "name": "personalisedMessage",
          "type": "string"
        }
      ],
      "payable": false,
      "stateMutability": "view",
      "type": "function"
    },
    {
      "inputs": [
        {
          "name": "_name",
          "type": "string"
        },
        {
          "name": "_symbol",
          "type": "string"
        }
      ],
      "payable": false,
      "stateMutability": "nonpayable",
      "type": "constructor"
    },
    {
      "anonymous": false,
      "inputs": [
        {
          "indexed": false,
          "name": "from",
          "type": "address"
        },
        {
          "indexed": false,
          "name": "to",
          "type": "address"
        },
        {
          "indexed": false,
          "name": "_tokenId",
          "type": "uint256"
        }
      ],
      "name": "Approval",
      "type": "event"
    },
    {
      "anonymous": false,
      "inputs": [
        {
          "indexed": false,
          "name": "from",
          "type": "address"
        },
        {
          "indexed": false,
          "name": "to",
          "type": "address"
        },
        {
          "indexed": false,
          "name": "tokenId",
          "type": "uint256"
        }
      ],
      "name": "Transfer",
      "type": "event"
    },
    {
      "anonymous": false,
      "inputs": [
        {
          "indexed": false,
          "name": "",
          "type": "string"
        },
        {
          "indexed": false,
          "name": "",
          "type": "uint256"
        },
        {
          "indexed": false,
          "name": "",
          "type": "string"
        },
        {
          "indexed": false,
          "name": "",
          "type": "uint256"
        },
        {
          "indexed": false,
          "name": "",
          "type": "uint256"
        }
      ],
      "name": "AssetCreated",
      "type": "event"
    },
    {
      "constant": true,
      "inputs": [
        {
          "name": "_interfaceID",
          "type": "bytes4"
        }
      ],
      "name": "supportsInterface",
      "outputs": [
        {
          "name": "",
          "type": "bool"
        }
      ],
      "payable": false,
      "stateMutability": "view",
      "type": "function"
    },
    {
      "constant": true,
      "inputs": [
        {
          "name": "_owner",
          "type": "address"
        }
      ],
      "name": "balanceOf",
      "outputs": [
        {
          "name": "count",
          "type": "uint256"
        }
      ],
      "payable": false,
      "stateMutability": "view",
      "type": "function"
    },
    {
      "constant": false,
      "inputs": [
        {
          "name": "_to",
          "type": "address"
        },
        {
          "name": "_tokenId",
          "type": "uint256"
        }
      ],
      "name": "transfer",
      "outputs": [],
      "payable": false,
      "stateMutability": "nonpayable",
      "type": "function"
    },
    {
      "constant": false,
      "inputs": [
        {
          "name": "_to",
          "type": "address"
        },
        {
          "name": "_tokenId",
          "type": "uint256"
        }
      ],
      "name": "approve",
      "outputs": [],
      "payable": false,
      "stateMutability": "nonpayable",
      "type": "function"
    },
    {
      "constant": false,
      "inputs": [
        {
          "name": "_from",
          "type": "address"
        },
        {
          "name": "_to",
          "type": "address"
        },
        {
          "name": "_tokenId",
          "type": "uint256"
        }
      ],
      "name": "transferFrom",
      "outputs": [],
      "payable": false,
      "stateMutability": "nonpayable",
      "type": "function"
    },
    {
      "constant": true,
      "inputs": [],
      "name": "totalSupply",
      "outputs": [
        {
          "name": "",
          "type": "uint256"
        }
      ],
      "payable": false,
      "stateMutability": "view",
      "type": "function"
    },
    {
      "constant": true,
      "inputs": [
        {
          "name": "_tokenId",
          "type": "uint256"
        }
      ],
      "name": "ownerOf",
      "outputs": [
        {
          "name": "owner",
          "type": "address"
        }
      ],
      "payable": false,
      "stateMutability": "view",
      "type": "function"
    },
    {
      "constant": true,
      "inputs": [
        {
          "name": "_owner",
          "type": "address"
        }
      ],
      "name": "tokensOfOwner",
      "outputs": [
        {
          "name": "ownerTokens",
          "type": "uint256[]"
        }
      ],
      "payable": false,
      "stateMutability": "view",
      "type": "function"
    }
  ],
  "bytecode": "0x606060405234156200001057600080fd5b60405162001dd638038062001dd68339810160405280805182019190602001805182019190505062000041620004fa565b82600590805190602001906200005992919062000544565b5081600690805190602001906200007292919062000544565b5060a060405190810160405280602060405190810160405280600081525081526020014267ffffffffffffffff1681526020016000815260200160008152602001602060405190810160405280600081525081525090508060016000805481526020019081526020016000206000820151816000019080519060200190620000fc929190620005cb565b5060208201518160010160006101000a81548167ffffffffffffffff021916908367ffffffffffffffff160217905550604082015181600201556060820151816003015560808201518160040190805190602001906200015e929190620005cb565b5090505062000180620002e564010000000002620015e7176401000000009004565b620001a7600033600160005403620002f764010000000002620013e5176401000000009004565b7f2fbb45cdf431959b49d09945771589784c142df91e85099a483919de3d6e583581600001516001600054038360800151600080604051808060200186815260200180602001858152602001848152602001838103835288818151815260200191508051906020019080838360005b838110156200023357808201518184015260208101905062000216565b50505050905090810190601f168015620002615780820380516001836020036101000a031916815260200191505b50838103825286818151815260200191508051906020019080838360005b838110156200029c5780820151818401526020810190506200027f565b50505050905090810190601f168015620002ca5780820380516001836020036101000a031916815260200191505b5097505050505050505060405180910390a15050506200068e565b60016000808282540192505081905550565b600360008373ffffffffffffffffffffffffffffffffffffffff1673ffffffffffffffffffffffffffffffffffffffff16815260200190815260200160002060008154809291906001019190505550816002600083815260200190815260200160002060006101000a81548173ffffffffffffffffffffffffffffffffffffffff021916908373ffffffffffffffffffffffffffffffffffffffff160217905550600073ffffffffffffffffffffffffffffffffffffffff168373ffffffffffffffffffffffffffffffffffffffff161415156200045657600360008473ffffffffffffffffffffffffffffffffffffffff1673ffffffffffffffffffffffffffffffffffffffff16815260200190815260200160002060008154809291906001900391905055506004600082815260200190815260200160002060006101000a81549073ffffffffffffffffffffffffffffffffffffffff02191690555b7fddf252ad1be2c89b69c2b068fc378daa952ba7f163c4a11628f55a4df523b3ef838383604051808473ffffffffffffffffffffffffffffffffffffffff1673ffffffffffffffffffffffffffffffffffffffff1681526020018373ffffffffffffffffffffffffffffffffffffffff1673ffffffffffffffffffffffffffffffffffffffff168152602001828152602001935050505060405180910390a1505050565b60a0604051908101604052806200051062000652565b8152602001600067ffffffffffffffff16815260200160008152602001600081526020016200053e62000652565b81525090565b828054600181600116156101000203166002900490600052602060002090601f016020900481019282601f106200058757805160ff1916838001178555620005b8565b82800160010185558215620005b8579182015b82811115620005b75782518255916020019190600101906200059a565b5b509050620005c7919062000666565b5090565b828054600181600116156101000203166002900490600052602060002090601f016020900481019282601f106200060e57805160ff19168380011785556200063f565b828001600101855582156200063f579182015b828111156200063e57825182559160200191906001019062000621565b5b5090506200064e919062000666565b5090565b602060405190810160405280600081525090565b6200068b91905b80821115620006875760008160009055506001016200066d565b5090565b90565b611738806200069e6000396000f3006060604052600436106100db576000357c0100000000000000000000000000000000000000000000000000000000900463ffffffff16806301ffc9a7146100e057806306fdde031461013a578063095ea7b3146101c857806318160ddd1461020a5780631d36e06c1461023357806323b872dd146102965780636352211e146102f757806370a082311461035a5780638462151c146103a757806395d89b4114610435578063a8bd9c32146104c3578063a9059cbb14610526578063affed0e014610568578063ce5b84ef14610591578063cf35bdd01461064e575b600080fd5b34156100eb57600080fd5b61012060048080357bffffffffffffffffffffffffffffffffffffffffffffffffffffffff19169060200190919050506107b9565b604051808215151515815260200191505060405180910390f35b341561014557600080fd5b61014d610a93565b6040518080602001828103825283818151815260200191508051906020019080838360005b8381101561018d578082015181840152602081019050610172565b50505050905090810190601f1680156101ba5780820380516001836020036101000a031916815260200191505b509250505060405180910390f35b34156101d357600080fd5b610208600480803573ffffffffffffffffffffffffffffffffffffffff16906020019091908035906020019091905050610b31565b005b341561021557600080fd5b61021d610bf3565b6040518082815260200191505060405180910390f35b341561023e57600080fd5b6102546004808035906020019091905050610bfc565b604051808273ffffffffffffffffffffffffffffffffffffffff1673ffffffffffffffffffffffffffffffffffffffff16815260200191505060405180910390f35b34156102a157600080fd5b6102f5600480803573ffffffffffffffffffffffffffffffffffffffff1690602001909190803573ffffffffffffffffffffffffffffffffffffffff16906020019091908035906020019091905050610c2f565b005b341561030257600080fd5b6103186004808035906020019091905050610ce0565b604051808273ffffffffffffffffffffffffffffffffffffffff1673ffffffffffffffffffffffffffffffffffffffff16815260200191505060405180910390f35b341561036557600080fd5b610391600480803573ffffffffffffffffffffffffffffffffffffffff16906020019091905050610d59565b6040518082815260200191505060405180910390f35b34156103b257600080fd5b6103de600480803573ffffffffffffffffffffffffffffffffffffffff16906020019091905050610da2565b6040518080602001828103825283818151815260200191508051906020019060200280838360005b83811015610421578082015181840152602081019050610406565b505050509050019250505060405180910390f35b341561044057600080fd5b610448610ed9565b6040518080602001828103825283818151815260200191508051906020019080838360005b8381101561048857808201518184015260208101905061046d565b50505050905090810190601f1680156104b55780820380516001836020036101000a031916815260200191505b509250505060405180910390f35b34156104ce57600080fd5b6104e46004808035906020019091905050610f77565b604051808273ffffffffffffffffffffffffffffffffffffffff1673ffffffffffffffffffffffffffffffffffffffff16815260200191505060405180910390f35b341561053157600080fd5b610566600480803573ffffffffffffffffffffffffffffffffffffffff16906020019091908035906020019091905050610faa565b005b341561057357600080fd5b61057b611045565b6040518082815260200191505060405180910390f35b341561059c57600080fd5b610638600480803590602001908201803590602001908080601f0160208091040260200160405190810160405280939291908181526020018383808284378201915050505050509190803590602001908201803590602001908080601f0160208091040260200160405190810160405280939291908181526020018383808284378201915050505050509190803590602001909190505061104b565b6040518082815260200191505060405180910390f35b341561065957600080fd5b61066f600480803590602001909190505061126f565b60405180806020018667ffffffffffffffff1667ffffffffffffffff168152602001858152602001848152602001806020018381038352888181546001816001161561010002031660029004815260200191508054600181600116156101000203166002900480156107225780601f106106f757610100808354040283529160200191610722565b820191906000526020600020905b81548152906001019060200180831161070557829003601f168201915b50508381038252848181546001816001161561010002031660029004815260200191508054600181600116156101000203166002900480156107a55780601f1061077a576101008083540402835291602001916107a5565b820191906000526020600020905b81548152906001019060200180831161078857829003601f168201915b505097505050505050505060405180910390f35b600060405180807f737570706f727473496e74657266616365286279746573342900000000000000815250601901905060405180910390207bffffffffffffffffffffffffffffffffffffffffffffffffffffffff1916827bffffffffffffffffffffffffffffffffffffffffffffffffffffffff19161480610a8c575060405180807f746f6b656e734f664f776e6572286164647265737329000000000000000000008152506016019050604051809103902060405180807f7472616e7366657246726f6d28616464726573732c616464726573732c75696e81526020017f74323536290000000000000000000000000000000000000000000000000000008152506025019050604051809103902060405180807f7472616e7366657228616464726573732c75696e7432353629000000000000008152506019019050604051809103902060405180807f617070726f766528616464726573732c75696e743235362900000000000000008152506018019050604051809103902060405180807f6f776e65724f662875696e7432353629000000000000000000000000000000008152506010019050604051809103902060405180807f62616c616e63654f6628616464726573732900000000000000000000000000008152506012019050604051809103902060405180807f746f74616c537570706c79282900000000000000000000000000000000000000815250600d019050604051809103902060405180807f73796d626f6c28290000000000000000000000000000000000000000000000008152506008019050604051809103902060405180807f6e616d65282900000000000000000000000000000000000000000000000000008152506006019050604051809103902018181818181818187bffffffffffffffffffffffffffffffffffffffffffffffffffffffff1916827bffffffffffffffffffffffffffffffffffffffffffffffffffffffff1916145b9050919050565b60058054600181600116156101000203166002900480601f016020809104026020016040519081016040528092919081815260200182805460018160011615610100020316600290048015610b295780601f10610afe57610100808354040283529160200191610b29565b820191906000526020600020905b815481529060010190602001808311610b0c57829003601f168201915b505050505081565b610b3b33826112b7565b1515610b4657600080fd5b610b508183611323565b7f8c5be1e5ebec7d5bd14f71427d1e84f3dd0314c0f7b2291e5b200ac8c7c3b925338383604051808473ffffffffffffffffffffffffffffffffffffffff1673ffffffffffffffffffffffffffffffffffffffff1681526020018373ffffffffffffffffffffffffffffffffffffffff1673ffffffffffffffffffffffffffffffffffffffff168152602001828152602001935050505060405180910390a15050565b60008054905090565b60026020528060005260406000206000915054906101000a900473ffffffffffffffffffffffffffffffffffffffff1681565b600073ffffffffffffffffffffffffffffffffffffffff168273ffffffffffffffffffffffffffffffffffffffff1614151515610c6b57600080fd5b3073ffffffffffffffffffffffffffffffffffffffff168273ffffffffffffffffffffffffffffffffffffffff1614151515610ca657600080fd5b610cb03382611379565b1515610cbb57600080fd5b610cc583826112b7565b1515610cd057600080fd5b610cdb8383836113e5565b505050565b60006002600083815260200190815260200160002060009054906101000a900473ffffffffffffffffffffffffffffffffffffffff169050600073ffffffffffffffffffffffffffffffffffffffff168173ffffffffffffffffffffffffffffffffffffffff1614151515610d5457600080fd5b919050565b6000600360008373ffffffffffffffffffffffffffffffffffffffff1673ffffffffffffffffffffffffffffffffffffffff168152602001908152602001600020549050919050565b610daa6115f9565b6000610db46115f9565b6000806000610dc287610d59565b94506000851415610df4576000604051805910610ddc5750595b90808252806020026020018201604052509550610ecf565b84604051805910610e025750595b90808252806020026020018201604052509350610e1d610bf3565b925060009150600190505b8281111515610ecb578673ffffffffffffffffffffffffffffffffffffffff166002600083815260200190815260200160002060009054906101000a900473ffffffffffffffffffffffffffffffffffffffff1673ffffffffffffffffffffffffffffffffffffffff161415610ebe57808483815181101515610ea757fe5b906020019060200201818152505081806001019250505b8080600101915050610e28565b8395505b5050505050919050565b60068054600181600116156101000203166002900480601f016020809104026020016040519081016040528092919081815260200182805460018160011615610100020316600290048015610f6f5780601f10610f4457610100808354040283529160200191610f6f565b820191906000526020600020905b815481529060010190602001808311610f5257829003601f168201915b505050505081565b60046020528060005260406000206000915054906101000a900473ffffffffffffffffffffffffffffffffffffffff1681565b600073ffffffffffffffffffffffffffffffffffffffff168273ffffffffffffffffffffffffffffffffffffffff1614151515610fe657600080fd5b3073ffffffffffffffffffffffffffffffffffffffff168273ffffffffffffffffffffffffffffffffffffffff161415151561102157600080fd5b61102b33826112b7565b151561103657600080fd5b6110413383836113e5565b5050565b60005481565b600061105561160d565b60a0604051908101604052808581526020014267ffffffffffffffff1681526020018481526020016000815260200186815250905080600160008054815260200190815260200160002060008201518160000190805190602001906110bb929190611653565b5060208201518160010160006101000a81548167ffffffffffffffff021916908367ffffffffffffffff1602179055506040820151816002015560608201518160030155608082015181600401908051906020019061111b929190611653565b509050506111276115e7565b6111386000336001600054036113e5565b7f2fbb45cdf431959b49d09945771589784c142df91e85099a483919de3d6e58358460016000540387866000604051808060200186815260200180602001858152602001848152602001838103835288818151815260200191508051906020019080838360005b838110156111ba57808201518184015260208101905061119f565b50505050905090810190601f1680156111e75780820380516001836020036101000a031916815260200191505b50838103825286818151815260200191508051906020019080838360005b83811015611220578082015181840152602081019050611205565b50505050905090810190601f16801561124d5780820380516001836020036101000a031916815260200191505b5097505050505050505060405180910390a16001600054039150509392505050565b600160205280600052604060002060009150905080600001908060010160009054906101000a900467ffffffffffffffff169080600201549080600301549080600401905085565b60008273ffffffffffffffffffffffffffffffffffffffff166002600084815260200190815260200160002060009054906101000a900473ffffffffffffffffffffffffffffffffffffffff1673ffffffffffffffffffffffffffffffffffffffff1614905092915050565b806004600084815260200190815260200160002060006101000a81548173ffffffffffffffffffffffffffffffffffffffff021916908373ffffffffffffffffffffffffffffffffffffffff1602179055505050565b60008273ffffffffffffffffffffffffffffffffffffffff166004600084815260200190815260200160002060009054906101000a900473ffffffffffffffffffffffffffffffffffffffff1673ffffffffffffffffffffffffffffffffffffffff1614905092915050565b600360008373ffffffffffffffffffffffffffffffffffffffff1673ffffffffffffffffffffffffffffffffffffffff16815260200190815260200160002060008154809291906001019190505550816002600083815260200190815260200160002060006101000a81548173ffffffffffffffffffffffffffffffffffffffff021916908373ffffffffffffffffffffffffffffffffffffffff160217905550600073ffffffffffffffffffffffffffffffffffffffff168373ffffffffffffffffffffffffffffffffffffffff1614151561154357600360008473ffffffffffffffffffffffffffffffffffffffff1673ffffffffffffffffffffffffffffffffffffffff16815260200190815260200160002060008154809291906001900391905055506004600082815260200190815260200160002060006101000a81549073ffffffffffffffffffffffffffffffffffffffff02191690555b7fddf252ad1be2c89b69c2b068fc378daa952ba7f163c4a11628f55a4df523b3ef838383604051808473ffffffffffffffffffffffffffffffffffffffff1673ffffffffffffffffffffffffffffffffffffffff1681526020018373ffffffffffffffffffffffffffffffffffffffff1673ffffffffffffffffffffffffffffffffffffffff168152602001828152602001935050505060405180910390a1505050565b60016000808282540192505081905550565b602060405190810160405280600081525090565b60a0604051908101604052806116216116d3565b8152602001600067ffffffffffffffff168152602001600081526020016000815260200161164d6116d3565b81525090565b828054600181600116156101000203166002900490600052602060002090601f016020900481019282601f1061169457805160ff19168380011785556116c2565b828001600101855582156116c2579182015b828111156116c15782518255916020019190600101906116a6565b5b5090506116cf91906116e7565b5090565b602060405190810160405280600081525090565b61170991905b808211156117055760008160009055506001016116ed565b5090565b905600a165627a7a723058202ef097e89e57b9d5ba9226c269883f33e5975da356c5aefb3d1e8ba82c9890820029",
  "source": "// this contract will have all the functions required to track ownership of the 721 , this will not change ever\npragma solidity ^0.4.11;\n\nimport \"./AssetBase.sol\";\nimport \"./ERC721.sol\";\n\ncontract Ownership is AssetBase , ERC721 {\n\n    string public  name ;\n    string public  symbol ;\n\n\n\n    function Ownership(string _name,string _symbol) public {\n        name=_name;\n        symbol=_symbol;\n        Asset memory _asset = Asset(\n        {\n        creationTime: uint64(now),\n        assetStatus: 0,\n        assetHash: \"\",\n        personalisedMessage: \"\",\n        assetType:0\n        });\n\n\n        assets[nonce] = _asset;\n        incrementNonce();\n        _transfer(0,msg.sender, nonce-1);\n\n        /* uint256 newAssetId = assets.push(_asset) - 1; */\n        // transfers newly generated locks to ceoaddress\n        /* _transfer(0,msg.sender, newAssetId); */\n\n        // fire event\n        AssetCreated(_asset.assetHash, nonce-1,_asset.personalisedMessage,0,0);\n\n    }\n    /**events*/\n    event Approval(address from, address to, uint256 _tokenId);\n\n\n\n    bytes4 constant InterfaceSignature_ERC165 =\n        bytes4(keccak256(\"supportsInterface(bytes4)\"));\n\n    bytes4 constant InterfaceSignature_ERC721 =\n        bytes4(keccak256(\"name()\")) ^\n        bytes4(keccak256(\"symbol()\")) ^\n        bytes4(keccak256(\"totalSupply()\")) ^\n        bytes4(keccak256(\"balanceOf(address)\")) ^\n        bytes4(keccak256(\"ownerOf(uint256)\")) ^\n        bytes4(keccak256(\"approve(address,uint256)\")) ^\n        bytes4(keccak256(\"transfer(address,uint256)\")) ^\n        bytes4(keccak256(\"transferFrom(address,address,uint256)\")) ^\n        bytes4(keccak256(\"tokensOfOwner(address)\")) ;\n\n    function supportsInterface(bytes4 _interfaceID) external view returns (bool) {\n        // DEBUG ONLY\n        //require((InterfaceSignature_ERC165 == 0x01ffc9a7) && (InterfaceSignature_ERC721 == 0x9a20483d));\n\n        return ((_interfaceID == InterfaceSignature_ERC165) || (_interfaceID == InterfaceSignature_ERC721));\n    }\n\n    // Internal utility functions: These functions all assume that their input arguments\n    // are valid. We leave it to public methods to sanitize their inputs and follow\n    // the required logic.\n\n    /// @dev Checks if a given address is the current owner of a particular Lock.\n    /// @param _claimant the address we are validating against.\n    /// @param _tokenId lock id, only valid when > 0\n    function _owns(address _claimant, uint256 _tokenId) internal view returns (bool) {\n        return tokenIndexToOwner[_tokenId] == _claimant;\n    }\n\n    /// @dev Checks if a given address currently has transferApproval for a particular lock.\n    /// @param _claimant the address we are confirming lock is approved for.\n    /// @param _tokenId lock id, only valid when > 0\n    function _approvedFor(address _claimant, uint256 _tokenId) internal view returns (bool) {\n        return tokenIndexToApproved[_tokenId] == _claimant;\n    }\n\n    /// @dev Marks an address as being approved for transferFrom(), overwriting any previous\n    ///  approval. Setting _approved to address(0) clears all transfer approval.\n    function _approve(uint256 _tokenId, address _approved) internal {\n        tokenIndexToApproved[_tokenId] = _approved;\n    }\n    /// @notice Returns the number of locks owned by a specific address.\n    /// @param _owner The owner address to check.\n    /// @dev Required for ERC-721 compliance\n    function balanceOf(address _owner) public view returns (uint256 count) {\n        return ownershipTokenCount[_owner];\n    }\n    /// @param _to The address of the recipient, can be a user or contract.\n    /// @param _tokenId The ID of the lock to transfer.\n    /// @dev Required for ERC-721 compliance.\n\n    /// vaibhav`s interpretation\n    /// this is for peer to peer transfer of kitties , you can only send your cat\n    function transfer(\n        address _to,\n        uint256 _tokenId\n    )external\n    {\n        // Safety check to prevent against an unexpected 0x0 default.\n        require(_to != address(0));\n        // Disallow transfers to this contract to prevent accidental misuse.\n        // The contract should never own any kitties (except very briefly\n        // after a gen0 cat is created and before it goes on auction).\n        require(_to != address(this));\n        // You can only send your own cat.\n        require(_owns(msg.sender, _tokenId));\n        // Reassign ownership, clear pending approvals, emit Transfer event.\n        _transfer(msg.sender, _to, _tokenId);\n    }\n    /// @notice Grant another address the right to transfer a specific lock via\n    ///  transferFrom(). This is the preferred flow for transfering NFTs to contracts.\n    /// @param _to The address to be granted transfer approval. Pass address(0) to\n    ///  clear all approvals.\n    /// @param _tokenId The ID of the lock that can be transferred if this call succeeds.\n    /// @dev Required for ERC-721 compliance.\n    function approve(\n        address _to,\n        uint256 _tokenId\n    )   external\n    {\n        // Only an owner can grant transfer approval.\n        require(_owns(msg.sender, _tokenId));\n\n        // Register the approval (replacing any previous approval).\n        _approve(_tokenId, _to);\n\n        // Emit approval event.\n        Approval(msg.sender, _to, _tokenId);\n    }\n\n    /// @notice Transfer a lock owned by another address, for which the calling address\n    ///  has previously been granted transfer approval by the owner.\n    /// @param _from The address that owns the lock to be transfered.\n    /// @param _to The address that should take ownership of the lock. Can be any address,\n    ///  including the caller.\n    /// @param _tokenId The ID of the lock to be transferred.\n    /// @dev Required for ERC-721 compliance.\n\n    /// vaibhav`s interpretation\n    /// checks if the person calling the function has the approval ,\n    /// checks if the _from owns the lock\n    /// transfer\n    function transferFrom(\n        address _from,\n        address _to,\n        uint256 _tokenId\n    )external\n    {\n        // Safety check to prevent against an unexpected 0x0 default.\n        require(_to != address(0));\n        // Disallow transfers to this contract to prevent accidental misuse.\n        // The contract should never own any kitties (except very briefly\n        // after a gen0 cat is created and before it goes on auction).\n        require(_to != address(this));\n        // Check for approval and valid ownership\n        require(_approvedFor(msg.sender, _tokenId));\n        require(_owns(_from, _tokenId));\n\n        // Reassign ownership (also clears pending approvals and emits Transfer event).\n        _transfer(_from, _to, _tokenId);\n    }\n    /// @notice Returns the total number of locks currently in existence.\n    /// @dev Required for ERC-721 compliance.\n    function totalSupply() public view returns (uint) {\n        return nonce;\n    }\n\n    /// @notice Returns the address currently assigned ownership of a given lock.\n    /// @dev Required for ERC-721 compliance.\n    function ownerOf(uint256 _tokenId)\n        external\n        view\n        returns (address owner)\n    {\n        owner = tokenIndexToOwner[_tokenId];\n\n        require(owner != address(0));\n    }\n    /// @notice Returns a list of all lock IDs assigned to an address.\n    /// @param _owner The owner whose tokens we are interested in.\n    /// @dev This method MUST NEVER be called by smart contract code. First, it's fairly\n    ///  expensive (it walks the entire lock array looking for cats belonging to owner),\n    ///  but it also returns a dynamic array, which is only supported for web3 calls, and\n    ///  not contract-to-contract calls.\n    function tokensOfOwner(address _owner) external view returns(uint256[] ownerTokens) {\n        uint256 tokenCount = balanceOf(_owner);\n\n        if (tokenCount == 0) {\n            // Return an empty array\n            return new uint256[](0);\n        } else {\n            uint256[] memory result = new uint256[](tokenCount);\n            uint256 totalLocks = totalSupply();\n            uint256 resultIndex = 0;\n\n            // We count on the fact that all cats have IDs starting at 1 and increasing\n            // sequentially up to the totalCat count.\n            uint256 lockId;\n\n            for (lockId = 1; lockId <= totalLocks; lockId++) {\n                if (tokenIndexToOwner[lockId] == _owner) {\n                    result[resultIndex] = lockId;\n                    resultIndex++;\n                }\n            }\n\n            return result;\n        }\n    }\n\n}\n",
  "sourcePath": "/Users/shokishoki/development/consensys/hin/trufflehin/contracts/Ownership.sol",
  "compiler": {
    "name": "solc",
    "version": "0.4.19+commit.c4cbbb05.Emscripten.clang"
  },
  "schemaVersion": "2.0.0",
  "updatedAt": "2018-03-17T18:11:52.613Z"
}