{
  "contractName": "Test",
  "abi": [
    {
      "constant": false,
      "inputs": [],
      "name": "hi",
      "outputs": [
        {
          "name": "",
          "type": "bool"
        }
      ],
      "payable": false,
      "stateMutability": "nonpayable",
      "type": "function"
    }
  ],
  "bytecode": "0x60606040523415600e57600080fd5b60a38061001c6000396000f300606060405260043610603f576000357c0100000000000000000000000000000000000000000000000000000000900463ffffffff168063a99dca3f146044575b600080fd5b3415604e57600080fd5b6054606e565b604051808215151515815260200191505060405180910390f35b600060019050905600a165627a7a72305820268fb9dd8cd99aee30308bbd9bf40f4b1e39a502bed0bf5b2188904185793fee0029",
  "source": "pragma solidity ^0.4.18;\n\ncontract Test {\n    function hi() returns(bool) {\n      return true;\n        // Starts paused\n    }\n}\n",
  "sourcePath": "/Users/rikki/RikkiChains/KryptoMedia---Tokenizing-Digital-Media-Content/trufflehin/contracts/Test.sol",
  "compiler": {
    "name": "solc",
    "version": "0.4.19+commit.c4cbbb05.Emscripten.clang"
  },
  "schemaVersion": "2.0.0",
  "updatedAt": "2018-03-18T05:29:17.857Z"
}