{
  "contractName": "Test",
  "abi": [
    {
      "constant": false,
      "inputs": [],
      "name": "hi",
      "outputs": [
        {
          "name": "",
          "type": "bool"
        }
      ],
      "payable": false,
      "stateMutability": "nonpayable",
      "type": "function"
    }
  ],
  "bytecode": "0x60606040523415600e57600080fd5b60a38061001c6000396000f300606060405260043610603f576000357c0100000000000000000000000000000000000000000000000000000000900463ffffffff168063a99dca3f146044575b600080fd5b3415604e57600080fd5b6054606e565b604051808215151515815260200191505060405180910390f35b600060019050905600a165627a7a723058202d8df2399fcb2279f5d8a1d363d2ffb8bef39d6b4d6bdc483e5255f4d813edaa0029",
  "source": "pragma solidity ^0.4.18;\n\ncontract Test {\n    function hi() returns(bool) {\n      return true;\n        // Starts paused\n    }\n}\n",
  "sourcePath": "/Users/shokishoki/development/consensys/hin/trufflehin/contracts/Test.sol",
  "compiler": {
    "name": "solc",
    "version": "0.4.19+commit.c4cbbb05.Emscripten.clang"
  },
  "schemaVersion": "2.0.0",
  "updatedAt": "2018-03-17T17:48:26.431Z"
}